{
  "contractName": "WorldBankElection",
  "abi": [
    {
      "inputs": [
        {
          "internalType": "uint256",
          "name": "maxCandidates",
          "type": "uint256"
        }
      ],
      "payable": false,
      "stateMutability": "nonpayable",
      "type": "constructor"
    },
    {
      "constant": true,
      "inputs": [],
      "name": "state",
      "outputs": [
        {
          "internalType": "enum WorldBankElection.Phase",
          "name": "",
          "type": "uint8"
        }
      ],
      "payable": false,
      "stateMutability": "view",
      "type": "function"
    },
    {
      "constant": false,
      "inputs": [
        {
          "internalType": "enum WorldBankElection.Phase",
          "name": "x",
          "type": "uint8"
        }
      ],
      "name": "changeState",
      "outputs": [],
      "payable": false,
      "stateMutability": "nonpayable",
      "type": "function"
    },
    {
      "constant": false,
      "inputs": [
        {
          "internalType": "uint256",
          "name": "_id",
          "type": "uint256"
        },
        {
          "internalType": "uint256",
          "name": "age",
          "type": "uint256"
        }
      ],
      "name": "registerCandidates",
      "outputs": [],
      "payable": false,
      "stateMutability": "nonpayable",
      "type": "function"
    },
    {
      "constant": false,
      "inputs": [
        {
          "internalType": "address",
          "name": "voter",
          "type": "address"
        },
        {
          "internalType": "enum WorldBankElection.VoterType",
          "name": "_type",
          "type": "uint8"
        }
      ],
      "name": "register",
      "outputs": [],
      "payable": false,
      "stateMutability": "nonpayable",
      "type": "function"
    },
    {
      "constant": false,
      "inputs": [
        {
          "internalType": "uint256",
          "name": "_id",
          "type": "uint256"
        }
      ],
      "name": "Downvote",
      "outputs": [],
      "payable": false,
      "stateMutability": "nonpayable",
      "type": "function"
    },
    {
      "constant": false,
      "inputs": [
        {
          "internalType": "uint256",
          "name": "_id",
          "type": "uint256"
        }
      ],
      "name": "vote",
      "outputs": [],
      "payable": false,
      "stateMutability": "nonpayable",
      "type": "function"
    },
    {
      "constant": true,
      "inputs": [],
      "name": "reqWinner",
      "outputs": [
        {
          "internalType": "uint256",
          "name": "winningId",
          "type": "uint256"
        }
      ],
      "payable": false,
      "stateMutability": "view",
      "type": "function"
    },
    {
      "constant": true,
      "inputs": [
        {
          "internalType": "uint256",
          "name": "_id",
          "type": "uint256"
        }
      ],
      "name": "voteCount",
      "outputs": [
        {
          "internalType": "int256",
          "name": "",
          "type": "int256"
        }
      ],
      "payable": false,
      "stateMutability": "view",
      "type": "function"
    }
  ],
  "bytecode": "0x60806040526000600360006101000a81548160ff0219169083600381111561002357fe5b021790555034801561003457600080fd5b50604051610dd0380380610dd08339818101604052602081101561005757600080fd5b810190808051906020019092919050505033600160006101000a81548173ffffffffffffffffffffffffffffffffffffffff021916908373ffffffffffffffffffffffffffffffffffffffff160217905550600060026000600160009054906101000a900473ffffffffffffffffffffffffffffffffffffffff1673ffffffffffffffffffffffffffffffffffffffff1673ffffffffffffffffffffffffffffffffffffffff16815260200190815260200160002060030160026101000a81548160ff0219169083600181111561012a57fe5b0217905550600a60026000600160009054906101000a900473ffffffffffffffffffffffffffffffffffffffff1673ffffffffffffffffffffffffffffffffffffffff1673ffffffffffffffffffffffffffffffffffffffff16815260200190815260200160002060000181905550600060026000600160009054906101000a900473ffffffffffffffffffffffffffffffffffffffff1673ffffffffffffffffffffffffffffffffffffffff1673ffffffffffffffffffffffffffffffffffffffff16815260200190815260200160002060030160006101000a81548160ff0219169083151502179055506001600360006101000a81548160ff0219169083600381111561023557fe5b021790555080600081610248919061024f565b50506102b8565b81548183558181111561027c5760030281600302836000526020600020918201910161027b9190610281565b5b505050565b6102b591905b808211156102b1576000808201600090556001820160009055600282016000905550600301610287565b5090565b90565b610b09806102c76000396000f3fe608060405234801561001057600080fd5b50600436106100885760003560e01c80634fc8a20d1161005b5780634fc8a20d1461016b578063508b30c9146101ad578063783ac7c7146101cb578063c19d93fb1461020357610088565b80630121b93f1461008d57806307e49598146100bb57806312468d8e1461010c578063268f11531461013a575b600080fd5b6100b9600480360360208110156100a357600080fd5b810190808035906020019092919050505061022f565b005b61010a600480360360408110156100d157600080fd5b81019080803573ffffffffffffffffffffffffffffffffffffffff169060200190929190803560ff1690602001909291905050506103e5565b005b6101386004803603602081101561012257600080fd5b810190808035906020019092919050505061064a565b005b6101696004803603602081101561015057600080fd5b81019080803560ff1690602001909291905050506107bf565b005b6101976004803603602081101561018157600080fd5b8101908080359060200190929190505050610870565b6040518082815260200191505060405180910390f35b6101b561089d565b6040518082815260200191505060405180910390f35b610201600480360360408110156101e157600080fd5b81019080803590602001909291908035906020019092919050505061095f565b005b61020b610a7c565b6040518082600381111561021b57fe5b60ff16815260200191505060405180910390f35b600280600381111561023d57fe5b600360009054906101000a900460ff16600381111561025857fe5b1461026257600080fd5b61026a610a8f565b600260003373ffffffffffffffffffffffffffffffffffffffff1673ffffffffffffffffffffffffffffffffffffffff1681526020019081526020016000206040518060c00160405290816000820154815260200160018201548152602001600282015481526020016003820160009054906101000a900460ff161515151581526020016003820160019054906101000a900460ff161515151581526020016003820160029054906101000a900460ff16600181111561032657fe5b600181111561033157fe5b81525050905080606001511561034657600080fd5b600080549050831061035757600080fd5b600181606001901515908115158152505082816040018181525050600260003373ffffffffffffffffffffffffffffffffffffffff1673ffffffffffffffffffffffffffffffffffffffff16815260200190815260200160002060000154600084815481106103c257fe5b906000526020600020906003020160010160008282540192505081905550505050565b600160009054906101000a900473ffffffffffffffffffffffffffffffffffffffff1673ffffffffffffffffffffffffffffffffffffffff163373ffffffffffffffffffffffffffffffffffffffff161461043f57600080fd5b600180600381111561044d57fe5b600360009054906101000a900460ff16600381111561046857fe5b1461047257600080fd5b600260008473ffffffffffffffffffffffffffffffffffffffff1673ffffffffffffffffffffffffffffffffffffffff16815260200190815260200160002060030160009054906101000a900460ff16156104cc57600080fd5b8160018111156104d857fe5b600260008573ffffffffffffffffffffffffffffffffffffffff1673ffffffffffffffffffffffffffffffffffffffff16815260200190815260200160002060030160029054906101000a900460ff16600181111561053357fe5b50506000600181111561054257fe5b82600181111561054e57fe5b14156105a157600a600260008573ffffffffffffffffffffffffffffffffffffffff1673ffffffffffffffffffffffffffffffffffffffff168152602001908152602001600020600001819055506105ea565b6001600260008573ffffffffffffffffffffffffffffffffffffffff1673ffffffffffffffffffffffffffffffffffffffff168152602001908152602001600020600001819055505b6000600260008573ffffffffffffffffffffffffffffffffffffffff1673ffffffffffffffffffffffffffffffffffffffff16815260200190815260200160002060030160006101000a81548160ff021916908315150217905550505050565b600280600381111561065857fe5b600360009054906101000a900460ff16600381111561067357fe5b1461067d57600080fd5b610685610a8f565b600260003373ffffffffffffffffffffffffffffffffffffffff1673ffffffffffffffffffffffffffffffffffffffff1681526020019081526020016000206040518060c00160405290816000820154815260200160018201548152602001600282015481526020016003820160009054906101000a900460ff161515151581526020016003820160019054906101000a900460ff161515151581526020016003820160029054906101000a900460ff16600181111561074157fe5b600181111561074c57fe5b81525050905080606001511561076157600080fd5b600080549050831061077257600080fd5b60018160600190151590811515815250508281604001818152505060016000848154811061079c57fe5b906000526020600020906003020160010160008282540392505081905550505050565b600160009054906101000a900473ffffffffffffffffffffffffffffffffffffffff1673ffffffffffffffffffffffffffffffffffffffff163373ffffffffffffffffffffffffffffffffffffffff161461081957600080fd5b600360009054906101000a900460ff16600381111561083457fe5b81600381111561084057fe5b1161084a57600080fd5b80600360006101000a81548160ff0219169083600381111561086857fe5b021790555050565b6000806000838154811061088057fe5b906000526020600020906003020160010154905080915050919050565b600060038060038111156108ad57fe5b600360009054906101000a900460ff1660038111156108c857fe5b146108d257600080fd5b600080905060008090505b6000805490508160ff16101561094e578160008260ff16815481106108fe57fe5b90600052602060002090600302016001015413156109415760008160ff168154811061092657fe5b90600052602060002090600302016001015491508060ff1693505b80806001019150506108dd565b50600181121561095a57fe5b505090565b600160009054906101000a900473ffffffffffffffffffffffffffffffffffffffff1673ffffffffffffffffffffffffffffffffffffffff163373ffffffffffffffffffffffffffffffffffffffff16146109b957600080fd5b806012811015610a31576040517f08c379a000000000000000000000000000000000000000000000000000000000815260040180806020018281038252601a8152602001807f4167652073686f756c64206265206174206c656173742031382e00000000000081525060200191505060405180910390fd5b8160008481548110610a3f57fe5b9060005260206000209060030201600001819055506000808481548110610a6257fe5b906000526020600020906003020160010181905550505050565b600360009054906101000a900460ff1681565b6040518060c0016040528060008152602001600081526020016000815260200160001515815260200160001515815260200160006001811115610ace57fe5b8152509056fea265627a7a7231582049eecd9f04707c4c74ef5233eba7e7e184f031da79f388f4aa251a0410acd5c964736f6c634300050c0032",
  "source": "pragma solidity^0.5.2;\r\n\r\ncontract WorldBankElection{\r\n    struct candidate{\r\n       uint age;\r\n       int256 voteCount;\r\n       int256 totalCandidate;\r\n    }\r\n    struct Voter{\r\n        uint weight;\r\n        uint age;\r\n        int256 vote;\r\n        bool voted;\r\n        bool registered;\r\n        VoterType _type;\r\n    }\r\n    candidate[] candidates;\r\n    address chairperson;\r\n    mapping(address => Voter) Voters;\r\n    enum Phase {Init,Regs, Vote, Done}  \r\n    Phase public state = Phase.Init; \r\n    \r\n    enum VoterType {director,employee}\r\n    \r\n     modifier validPhase(Phase reqPhase) \r\n    { require(state == reqPhase); \r\n      _; \r\n    } \r\n    \r\n    modifier onlyChair() \r\n     {require(msg.sender == chairperson);\r\n      _;\r\n     }\r\n     \r\n    modifier registeredVoter(){\r\n         require(Voters[msg.sender].registered == true);\r\n         _;\r\n    }\r\n    \r\n    modifier checkIfGreaterThan18(uint age){\r\n        require(age >= 18, 'Age should be at least 18.');\r\n        _;\r\n    }\r\n    \r\n    modifier CheckIfAlreadyVoted(){\r\n        require(Voters[msg.sender].voted == false);\r\n        _;\r\n    }\r\n\r\n    \r\n    constructor(uint maxCandidates) public{\r\n        chairperson = msg.sender;\r\n        Voters[chairperson]._type = VoterType.director;\r\n        Voters[chairperson].weight = 10;\r\n        Voters[chairperson].voted = false;\r\n        state = Phase.Regs;\r\n        candidates.length = maxCandidates;\r\n    }\r\n        \r\n     function changeState(Phase x) onlyChair public {\r\n        \r\n        require (x > state );\r\n       \r\n        state = x;\r\n     \r\n    }\r\n    \r\n    function registerCandidates(uint _id, uint age) onlyChair checkIfGreaterThan18(age) public {\r\n        \r\n        candidates[_id].age = age;\r\n        candidates[_id].voteCount = 0;\r\n        //candidates[_id].totalCandidate =candidates[_id].totalCandidate + 1;\r\n        \r\n    }\r\n\r\n    function register(address voter , VoterType _type) public onlyChair validPhase(Phase.Regs){\r\n       \r\n        require (! Voters[voter].voted);\r\n        Voters[voter]._type == _type;\r\n        if( _type == VoterType.director)\r\n        {\r\n        Voters[voter].weight = 10;\r\n        }\r\n        else\r\n        {\r\n         Voters[voter].weight = 1;   \r\n        }\r\n        Voters[voter].voted = false;\r\n    }\r\n    \r\n    \r\n     function Downvote(uint _id) public validPhase(Phase.Vote)\r\n    {\r\n         Voter memory sender = Voters[msg.sender];\r\n        require (!sender.voted); \r\n        require (_id < (candidates.length));\r\n        sender.voted = true;\r\n        sender.vote = int256(_id);\r\n        candidates[_id].voteCount -= 1;\r\n    }\r\n    \r\n    function vote(uint _id) validPhase(Phase.Vote) public\r\n    {\r\n       \r\n       Voter memory sender = Voters[msg.sender];\r\n       require (!sender.voted); \r\n       require (_id < (candidates.length));\r\n       sender.voted = true;\r\n       (sender.vote) = int256(_id);\r\n       (candidates[_id].voteCount) += int256(Voters[msg.sender].weight);\r\n    }\r\n    \r\n    function reqWinner() validPhase(Phase.Done) public view returns (uint winningId ) {\r\n        int256 winningVoteCount = 0;\r\n        for (uint8 i = 0; i < candidates.length; i++) \r\n            if (candidates[i].voteCount > winningVoteCount) {\r\n                winningVoteCount = candidates[i].voteCount;\r\n                winningId = i;\r\n            }\r\n       assert(winningVoteCount>=1);\r\n    }\r\n    \r\n     function voteCount(uint _id) public view returns(int256)\r\n    {\r\n        int256 count = candidates[_id].voteCount;\r\n        return count;\r\n    }\r\n}\r\n",
  "sourcePath": "C:/Users/manisha/Desktop/blockchain_proj1_lab2/WorldBankElection-Dapp/WorldBankElection-contract/contracts/WorldBankElection.sol",
  "compiler": {
    "name": "solc",
    "version": "0.5.12+commit.7709ece9.Emscripten.clang"
  },
  "schemaVersion": "3.0.19",
  "updatedAt": "2019-12-02T22:09:13.506Z",
  "networkType": "ethereum",
  "devdoc": {
    "methods": {}
  },
  "userdoc": {
    "methods": {}
  }
}